S00F00004550535F4343322E7372656316
S11300000C9438000C944A000C944A000C944A0056
S11300100C944A000C944A000C944A000C944A0034
S11300200C944A000C9492010C944A000C944A00DB
S11300300C944A000C944A000C944A000C944A0014
S11300400C947E020C943C030C944A000C944A00D9
S11300500C944A000C944A000C944A000C944A00F4
S11300600C944A000C94BE010C944A000C944A006F
S113007011241FBECFEFD4E0DEBFCDBF21E0A0E04E
S1130080B1E001C01D92A43CB207E1F70E94D00088
S11300900C9491050C940000EDE3F1E080818B7FDA
S11300A0808380818E7F80838081886080830E94AA
S11300B08B001092580108958091580181110E947B
S11300C04C0080917C01823011F40E9402038091E3
S11300D05A018E3030F00E94D5000E94190110920E
S11300E05A0180915901833070F0EDE3F1E0808191
S11300F0806280838081808380818F7B808381E0A4
S113010080935801089586B7806186BF889586B725
S11301108F7E86BF0895889A8091510181FF08C01F
S11301208091520181FF02C0899A09C0899807C051
S113013080913D0182FF02C0899A01C08998809113
S1130140510182FF08C08091520182FF02C08E9A41
S113015008958E98089580913D0180FF02C08E9A83
S113016008958E98089588E0E1E5F1E010828150C9
S1130170E9F78CEB82BB11BAEDE3F1E08081886092
S1130180808380818B7F808380818E7F80830E94A7
S11301908B0083E480BB8FE08EB98FE38AB9089526
S11301A00E945E010E945C00FDCFCF92DF92EF922D
S11301B0FF921F9A2698279A209A2198229A239A86
S11301C0139A89EF90E00197F1F700C000001E9A9E
S11301D01F9861B170E080E090E00E9472049B017E
S11301E0AC0160E070E48CE893E40E94D7036B01F7
S11301F07C0120E030E0A9010E9422058823A4F0BC
S113020020E030E04FE750E4C701B6010E94D30379
S1130210181654F0C701B6010E9444046295660F93
S1130220660F607C60933A01FF90EF90DF90CF906F
S11302300895CF92DF92EF92FF921F9A2698279803
S11302402098219A229A239A139A89EF90E0019791
S1130250F1F700C000001E9A1F9861B170E080E0C1
S113026090E00E94720420E030E040E850E40E94F4
S1130270260520E030E848E853E40E946F036B0150
S11302807C0120E030E040E053EC0E94220588230A
S113029084F020E030E04EEF52E4C701B6010E9442
S11302A0D303181634F0C701B6010E943F046093CB
S11302B03B01FF90EF90DF90CF9008950E94B30030
S11302C00E947A010E9472020E94A9010E94870181
S11302D086B78F7986BFEDE3F1E0808180838081EA
S11302E08064808381E0809358018BEA80933E018F
S11302F078940895E1E7F0E08081836080838AB791
S113030080688ABF10925A0110925901089599E2A7
S113031088ED0FB6F894A89580934F009093500001
S11303200FBE08951F920F920FB60F9211248F9350
S113033080915A018F5F80935A01809159018F5F98
S113034080935901A8958F910F900FBE0F901F9025
S113035018958AEA80937C008DE380937F00109245
S11303605B011092570180E090E0FC01E050FF4FE8
S11303701082019688359105C1F708951F920F9256
S11303800FB60F9211248F93EF93FF9380917D000A
S113039086FF2AC080917D0080FF26C080917D0069
S11303A08C7011F580915B01811109C081E080930B
S11303B05B01EEE7F0E08081836080838BC08091F5
S11303C05B01823031F4EEE7F0E08081836080836A
S11303D081C010925B01EDE7F0E08081806480834E
S11303E080818068808376C080917D0088230CF0B2
S11303F04FC080917D008C7009F04AC080915B01F0
S1130400813041F480917A0080935C0182E0809392
S11304105B0160C080915B01823029F080915B01B7
S1130420833009F057C083E080935B0180915C01C5
S1130430883518F580917D0081FF0EC0E0915C0144
S1130440F0E0E050FF4F808180937A0080915C015E
S11304508F5F80935C013EC0E0915C01F0E080918D
S11304607A00E050FF4F808380915C018F5F80931E
S11304705C0181E0809357012DC010925B01EDE790
S1130480F0E080818064808380818068808322C0E2
S113049080917D0086FF14C080917D0080FD10C096
S11304A080917D008C7061F480915B01823011F049
S11304B010925B01EDE7F0E080818E7F80830AC0BB
S11304C010925B01EDE7F0E080818064808380819D
S11304D080688083FF91EF918F910F900FBE0F90F2
S11304E01F90189512BC85E081BD86E084BD88E923
S11304F085BD1092570110927C0108951F920F92AE
S11305000FB60F9211248F93EF93FF9380917C0188
S1130510813049F080B58432A1F581E080937C017B
S11305201092C3012EC08091C3018334F1F4E09191
S1130530C301F0E080B5E258FE4F808382E08093EF
S11305407C011092590180913D0185FF1AC0EDE3B1
S1130550F1E080818F7D80838081808380818064CD
S1130560808381E0809358010CC0E091C301F0E0E6
S113057080B5E258FE4F80838091C3018F5F8093E2
S1130580C301FF91EF918F910F900FBE0F901F90B9
S1130590189584E280935D0181E480935E0180E498
S11305A090E0FC01E050FF4F2081FC01E15EFE4F32
S11305B02083019688359105A1F781E0809360013D
S11305C0809137018093770180913A01809378017B
S11305D080913B018093790180913D0180937A0160
S11305E010927B0180E090E0EBE7F1E02081DC01F8
S11305F0A35ABE4F3C912327208301968E31910547
S1130600A9F7089580E090E0FC01E058FE4F2081B6
S1130610FC01E050FF4F2083019687339105A1F739
S11306208091B801809338018091B9018093390198
S11306308091BC0180933C018BEA80933E018091C0
S1130640BF0180933F018091C0018093510180914B
S1130650C101809352010E94C90281E080937D010F
S113066083E080937C011092570180915D0180BDED
S113067085B5806285BD08951F920F920FB60F92C3
S113068011248F93EF93FF9380917D018E3168F451
S1130690E0917D01F0E0E35AFE4F808180BD8091BE
S11306A07D018F5F80937D0111C085B58F7D85BDF0
S11306B010927C01E0917D01F0E0E35AFE4F8081CD
S11306C080BD80917D018F5F80937D01FF91EF91CB
S11306D08F910F900FBE0F901F9018955058BB2705
S11306E0AA270ED075C166D130F06BD120F031F459
S11306F09F3F11F41EF45BC10EF4E095E7FB51C17A
S1130700E92F77D180F3BA17620773078407950737
S113071018F071F49EF58FC10EF4E0950B2EBA2FEC
S1130720A02D0B01B90190010C01CA01A0011124F3
S1130730FF27591B99F0593F50F4503E68F11A169F
S1130740F040A22F232F342F4427585FF3CF469530
S113075037952795A795F0405395C9F77EF41F1652
S1130760BA0B620B730B840BBAF09150A1F0FF0F1C
S1130770BB1F661F771F881FC2F70EC0BA0F621F08
S1130780731F841F48F4879577956795B795F795F8
S11307909E3F08F0B3CF9395880F08F09927EE0F8A
S11307A0979587950895D9D008F481E008950CD0E1
S11307B00FC107D140F0FED030F021F45F3F19F0B3
S11307C0F0C0511139C1F3C014D198F39923C9F37E
S11307D05523B1F3951B550BBB27AA276217730743
S11307E0840738F09F5F5F4F220F331F441FAA1FF7
S11307F0A9F333D00E2E3AF0E0E830D091505040B7
S1130800E695001CCAF729D0FE2F27D0660F771F64
S1130810881FBB1F261737074807AB07B0E809F046
S1130820BB0B802DBF01FF2793585F4F2AF09E3FDB
S1130830510568F0B6C000C15F3FECF3983EDCF3AD
S1130840869577956795B795F7959F5FC9F7880F54
S1130850911D9695879597F90895E1E0660F771FA6
S1130860881FBB1F621773078407BA0720F0621B37
S1130870730B840BBA0BEE1F88F7E095089504D030
S11308806894B111D9C00895BCD088F09F5790F0F6
S1130890B92F9927B751A0F0D1F0660F771F881FA1
S11308A0991F1AF0BA95C9F712C0B13081F0C3D0BC
S11308B0B1E00895C0C0672F782F8827B85F39F05A
S11308C0B93FCCF3869577956795B395D9F73EF400
S11308D090958095709561957F4F8F4F9F4F0895A8
S11308E0E89409C097FB3EF49095809570956195C6
S11308F07F4F8F4F9F4F9923A9F0F92F96E9BB277C
S11309009395F695879577956795B795F111F8CFF7
S1130910FAF4BB0F11F460FF1BC06F5F7F4F8F4F62
S11309209F4F16C0882311F096E911C0772321F058
S11309309EE8872F762F05C0662371F096E8862FF0
S113094070E060E02AF09A95660F771F881FDAF747
S1130950880F9695879597F90895990F0008550F74
S1130960AA0BE0E8FEEF16161706E807F907C0F031
S113097012161306E407F50798F0621B730B840B39
S1130980950B39F40A2661F0232B242B252B21F413
S113099008950A2609F4A140A6958FEF811D811DB3
S11309A0089597F99F6780E870E060E008959FEFED
S11309B080EC089500240A941616170618060906F2
S11309C0089500240A9412161306140605060895C1
S11309D0092E0394000C11F4882352F0BB0F40F449
S11309E0BF2B11F460FF04C06F5F7F4F8F4F9F4F89
S11309F0089557FD9058440F551F59F05F3F71F00B
S1130A004795880F97FB991F61F09F3F79F0879571
S1130A100895121613061406551FF2CF4695F1DFFA
S1130A2008C0161617061806991FF1CF869571058A
S1130A30610508940895E894BB2766277727CB01BE
S1130A4097F908958ADF08F48FEF08950AD0C0CF8C
S1130A50B1DF28F0B6DF18F0952309F0A2CFA7CFB5
S1130A60EBCFC7DFA8F39923D9F35523C9F3950F27
S1130A7050E0551FAA27EE27FF27BB270024089420
S1130A80679520F4E20FF31FB41F0A1E220F331FD1
S1130A90441FAA1F6695A9F7779530F4F30FB41F86
S1130AA00A1E121E08F46395330F441FAA1F221F47
S1130AB0769599F7879520F4B40F0A1E121E631FCA
S1130AC0440FAA1F221F331F8695A9F7862F712D65
S1130AD0602D11249F5750408AF0E1F088234AF09A
S1130AE0EE0FFF1FBB1F661F771F881F91505040DA
S1130AF0A9F79E3F510570F054CF9ECF5F3FECF3B2
S1130B00983EDCF3869577956795B795F795E795C5
S1130B109F5FC1F7FE2B880F911D9695879597F9D6
S1090B200895F894FFCFD4
S9030000FC
