:1000000045C0000061C000005FC000005DC000008E
:100010005BC0000059C0000057C0000055C0000080
:1000200053C0000051C000004FC000004DC0000090
:100030004BC0000049C000000C944D0C45C00000AE
:100040000C943D0C41C000000C949B0D0C94520E7E
:100050003BC0000039C0000037C0000035C00000C0
:1000600033C0000031C000002FC000002DC00000D0
:100070002BC0000029C000000C94F60D0C94860ED5
:1000800023C0000021C000001FC0000011241FBEBB
:10009000CFEFD0E1DEBFCDBF11E0A0E0B1E0EAEDEF
:1000A000F0E200E00BBF02C007900D92A236B1074C
:1000B000D9F721E0A2E6B1E001C01D92AD3DB20743
:1000C000E1F7C7D10C946B109BCF0F931F93CF9385
:1000D000DF93EC0184E2888384E4898380E58A836A
:1000E000EDE1F1E086858B8387858C8380898D8324
:1000F00081858E8382858F838385888784858987A0
:10010000EEE2F1E085858A8786858B8787858C87F7
:1001100080898D8781858E8782858F878385888B6F
:100120008485898BE0E0F1E081818A8B82818B8BF1
:10013000E3E0F1E081818C8B82818D8BECE0F1E05A
:1001400085858E8B86858F8B8785888F8089898F23
:1001500081858A8F82858B8F83858C8F84858D8F17
:10016000E0E5F1E085858E8F86858F8F878588A372
:10017000808989A381858AA382858BA383858CA3AB
:1001800084858DA3EFE3F1E085858EA386858FA31B
:10019000878588A7808989A781858AA782858BA77B
:1001A00083858CA784858DA7E9E0F1E081818EA706
:1001B00082818FA7E6E0F1E0818188AB828189AB03
:1001C00036D68AAB3BD68BAB40D68CAB01E00DABC1
:1001D00012E01EAB48D68FAB08AF19AF0AAF0BAF1A
:1001E0001CAF1DAF0EAF1FAFFE01E05CFF4F83E3FE
:1001F0008083319680839E012E5B3F4FF90180837F
:10020000319680833196DE018D9180838D9190812E
:1002100089278083A217B307C9F7DF91CF911F9178
:100220000F910895CF93DF931F92CDB7DEB78AEA7F
:10023000898361E0CE0101960E948B0D0F90DF91C2
:10024000CF910895CF93DF93813019F0C3E9D1E0C6
:1002500002C0C4EBD1E0898D811148C08B858093A9
:1002600087018C85809376018D85809381018E85B1
:10027000809386018F85809380018889809389018E
:100280008A81882319F081E0FFD702C080E0FCD783
:100290008B81882311F082E001C080E09C81911164
:1002A00084609D81911180619E81911188600E947E
:1002B000E0098F81882311F082E001C080E09885F9
:1002C000911184609985911188609A85911180615E
:1002D0000E94740AF1D606D733D748D70E949609F0
:1002E0000E94AC090E94480A0E94E20ADF91CF9165
:1002F00008958130A1F42091B40181E090E0FC01E7
:10030000EC54FE4F3081232701968E319105B9F7C9
:100310009091D20181E02917A1F080E00895209109
:10032000930181E090E0FC01ED56FE4F30812327E0
:1003300001968E319105B9F79091B10181E02913B1
:1003400080E00895CF92DF92EF92FF920F931F9378
:10035000CF937C012AEFE20EF11C6C012CE0C21A53
:100360002EEFD20A01C07801C7010E945210C82F97
:1003700087010F5F1F4FC016D10659F0C8010E94B8
:10038000521090E02C2F30E02F5F3F4F82179307E1
:1003900051F3C7018A5F9109CF911F910F91FF908F
:1003A000EF90DF90CF900895CF92DF92EF92FF927F
:1003B0000F931F93CF93DF936C018B01E42EFB010E
:1003C000C081D181CE0186509F4F0E945210F82EDD
:1003D0002196C60186509F4FC817D90721F0F80112
:1003E000D183C08303C0F801D182C0826E2DC801C1
:1003F0000E945A1061E06F0DC80186509F4F0E9405
:100400005A10DF91CF911F910F91FF90EF90DF90E5
:10041000CF9008958BE38BBB84EC8ABB82E488BBCE
:100420008DEB87BB88E785BB87E884BB8FE082BB09
:1004300090EF91BB2BEF23B924E022B926EF209354
:10044000620029E02093610090936500809364002E
:1004500008958BEB80936F00DDDF0E94490D0E94B1
:10046000730D0E94850D0E94770C90D289E091E077
:100470007AD386E091E077D383E091E074D380E093
:1004800091E071D30E94850C71D42ED00B9B28C0B3
:100490009FE088E10FB6F894A89581BD0FBE91BD8D
:1004A000E2D48F5FE7D40E94FB0B2AD5823069F03B
:1004B00018F4882331F00FC0833049F0843049F0BC
:1004C0000AC082E016D562D009C060D007C003D14F
:1004D00005C002D103C082E00CD558D0A895E5CF65
:1004E00003D080E090E00895CF93DF93CDB7DEB7DF
:1004F0002A970FB6F894DEBF0FBECDBF789480ED7B
:1005000097E00E940E0C0E94770D0E94880C86E0F6
:1005100091E029D362E0CE0101960E948B0D80917B
:1005200092018823E1F306E011E0198220E041E026
:10053000BE016F5F7F4FF80180810E94AD0C21E00A
:1005400042E0BE016F5F7F4FF80180810E94FA0C8C
:1005500062E0CE0101960E948B0D8091920188236A
:10056000E1F3C80116D3F8018281898381818A83EE
:1005700062E0CE0101960E948B0D8091920188234A
:10058000E1F388EE93E00E940E0CCFCFEF92FF9242
:100590000F931F93CF93DF93CDB7DEB7C554D10927
:1005A0000FB6F894DEBF0FBECDBF0E94880C18D3E3
:1005B0000E94850CCBD38EE013D196D1CE0101964B
:1005C00084DD78940E94770D2DDE83EC99E001970D
:1005D000F1F700C000008E010F5F1F4F7E0196E40F
:1005E000E90EF11C81E090E00E940E0C61E0C80170
:1005F0000E948B0D80919201811108C080E090E0F3
:100600000E940E0C809192018823C1F30F5F1F4F4F
:100610000E151F0539F78091B301811110C080912B
:10062000900181110CC084E690E00E940E0C809134
:10063000B301811104C0809190018823A1F38091BE
:100640009001811102C01FD402C081E01CD40E941D
:10065000730DF89426D4882331F029D4882319F017
:1006600084E047D42AC081E044DE182F82E041DED6
:10067000113081F4813059F464EB71E083E991E049
:100680000E944910892B41F481E0DCDD05C081E046
:10069000D9DD02C082E0D6DDCCD7A895789481EE72
:1006A0000E94270C81EE0E94270C81EE0E94270CED
:1006B00081EE0E94270CF894A895CB5BDF4F0FB614
:1006C000F894DEBF0FBECDBFDF91CF911F910F9188
:1006D000FF90EF900895089508958091680190919A
:1006E000690190578736964138F480916A0190915C
:1006F0006B018130904408F01BD580916801909186
:100700006901815092478536924140F480916A0197
:1007100090916B018115924408F402D58091620199
:100720009091630190578736964138F4809170011B
:10073000909171018130904408F036D5809162012A
:1007400090916301815092478536924140F48091A7
:100750007001909171018115924408F41DC50895AE
:1007600080916A0190916B01892B31F08091700129
:1007700090917101892B19F481E09FD302C080E030
:100780009CD380916801909169018130904738F045
:1007900080916201909163018130904718F481E06B
:1007A0009AC3089580E089C308958091660190916D
:1007B0006701409738F4809188018F738093880196
:1007C0007BD490D480916E0190916F01409738F462
:1007D000809188018F7C809388016ED483C40895B2
:1007E000CF93C82FE0E5F1E0848590E0982F88272B
:1007F0002385822B9093690180936801AFE3B1E078
:100800001C968C911C9790E0982F88271B962C9112
:100810001B97822B9093630180936201868590E001
:10082000982F88272585AC01422B9A019089892F22
:1008300090E0982F88274785842B820F931F9093F1
:100840006701809366011E968C911E9790E0982F09
:1008500088271D962C911D97AC01422B9A0150962A
:100860009C915097892F90E0982F88271F964C9144
:10087000842B820F931F90936F0180936E01ACE0E5
:10088000B1E01A968C911A9790E0982F88271996C4
:100890002C91822B90936D0180936C01828590E066
:1008A000982F88272185822B90936501809364017E
:1008B000E9E0F1E02281818190E0922B90936B013D
:1008C00080936A01E6E0F1E02281818190E0922B41
:1008D0009093710180937001C0FD67DFC2FDFDDE62
:1008E000C3FD3EDFCF910895CF93DF93EDE1F1E0BB
:1008F000C685D0E0DC2FCC278585C82B808990E089
:10090000982F88272785822BC80FD91FEEE2F1E0A8
:10091000868590E0982F88272585AC01422B9A0187
:100920009089892F90E0982F88274785842B820F04
:10093000931F99231CF491958195910981973CF01F
:1009400080918F018B7F80938F01A2D506C080910B
:100950008F01846080938F019BD5CE01DD2324F429
:10096000882799278C1B9D0B81973CF080918F01E4
:100970008E7F80938F0126D606C080918F01816083
:1009800080938F011FD6DF91CF9108958F929F9210
:10099000AF92BF92CF92DF92EF92FF920F931F938D
:1009A000CF93DF9300D000D0CDB7DEB719828BE1B3
:1009B0008A8383E08B830F2EF0E58F2EF1E09F2E4C
:1009C000F02D21E043E0BE016F5F7F4FF401808195
:1009D000C4D70F2EFFE3AF2EF1E0BF2EF02D21E0A4
:1009E00043E0BE016F5F7F4FF5018081B6D70F2EC8
:1009F000FEE2CF2EF1E0DF2EF02D21E043E0BE013C
:100A00006F5F7F4FF6018081A8D70F2EFDE1EF2E9B
:100A1000F1E0FF2EF02D21E043E0BE016F5F7F4F3C
:100A2000F70180819AD70CE011E021E043E0BE019C
:100A30006F5F7F4FF801808190D78AE089838CECCB
:100A40008A8383E58B838C8321E044E0BE016F5F62
:100A50007F4FF401808181D721E044E0BE016F5FC8
:100A60007F4FF501808179D721E044E0BE016F5FBF
:100A70007F4FF601808171D721E044E0BE016F5FB6
:100A80007F4FF701808169D721E044E0BE016F5FAD
:100A90007F4FF801808161D70F900F900F900F90DA
:100AA000DF91CF911F910F91FF90EF90DF90CF904A
:100AB000BF90AF909F908F9008950F931F93CF9307
:100AC000DF93CDB7DEB728970FB6F894DEBF0FBE21
:100AD000CDBF8C018DE0898321E041E0BE016F5FD5
:100AE0007F4FF801808139D721E048E0BE016F5F78
:100AF0007F4FF80180817ED7898190E0982F8827E9
:100B00002A81822BF801968385838B8190E0982F30
:100B100088272C81822B908787838D8190E0982F66
:100B200088272E81822B928381838F8190E0982F5A
:100B300088272885822B9483838382E089838FEFA3
:100B40008A8321E042E0BE016F5F7F4F808105D73D
:100B500028960FB6F894DEBF0FBECDBFDF91CF91C0
:100B60001F910F910895CF93DF9300D0CDB7DEB7DB
:100B700021E0298327EE2A8321E042E0BE016F5F56
:100B80007F4FFC018081E9D60F900F90DF91CF91CC
:100B900008950F931F93CF93DF9300D0CDB7DEB7A7
:100BA0008C01198220E041E0BE016F5F7F4FFC01A4
:100BB0008081D3D621E042E0BE016F5F7F4FF80114
:100BC000808118D78981F80182838A818183C80155
:100BD000CADF0F900F90DF91CF911F910F91089571
:100BE00080E591E06ADF8FE391E067DF8EE291E0DC
:100BF00064DF8DE191E061DF8CE091E05EDF83E016
:100C000091E0C7DF80E091E0C4DF89E091E0C1DFDF
:100C100086E091E0BECF0895CF93DF93EC016D8124
:100C20007E817595679575956795759567957595A9
:100C30006795072E000C880B990B0E945A0F20E035
:100C400030E040E051E40E94E60F20E030EE4FEF4C
:100C500054E40E94BF0E20E030E040E056E40E94E1
:100C6000E60F0E94270F7E876D876F8178857595C7
:100C70006795759567957595679575956795072E31
:100C8000000C880B990B0E945A0F20E030E040E0E6
:100C900051E40E94E60F20E030EE4FEF54E40E9452
:100CA000BF0E20E030E040E056E40E94E60F0E94D4
:100CB000270F788B6F8769817A8176956795729512
:100CC00062956F7067277F70672780E090E00E94D1
:100CD000580F20E030E040E252E40E94E60F20E0AE
:100CE00030E040E05AE30E94E60F20E030E040E0D0
:100CF00056E40E94E60F0E942C0F7A8769876B8169
:100D00007C8176956795729562956F7067277F7085
:100D1000672780E090E00E94580F20E030E040E23A
:100D200052E40E94E60F20E030E040E05AE30E94E7
:100D3000E60F20E030E040E056E40E94E60F0E941B
:100D40002C0F7C876B87DF91CF91089580E591E030
:100D500063DF8FE391E060DF8EE291E05DDF8DE1A4
:100D600091E05ADF8CE091E057CF0895AF92BF92A7
:100D7000CF92DF92EF92FF920F931F93CF93DF9367
:100D80000F2EFBE7AF2EF1E0BF2EF02DF501118203
:100D900010820F2EF7E7CF2EF1E0DF2EF02D84EF3B
:100DA00091E0F601918380830F2EFBE8EF2EF1E0B6
:100DB000FF2EF02D88EE93E0F7019183808302E807
:100DC00011E08CED95E0F80191838083C2E7D1E0DA
:100DD00080ED97E09983888380E090E0B3DAF501B5
:100DE00093838283F60180819181ACDAF60193834B
:100DF0008283F70180819181A5DAF7019383828351
:100E0000F801808191819EDAF80193838283888141
:100E1000998198DA9B838A83DF91CF911F910F91FB
:100E2000FF90EF90DF90CF90BF90AF9008958091AA
:100E30007D0190917E010C9452100895809179016A
:100E400090917A010C945210089580918D019091A7
:100E50008E010C9452100895809184019091850127
:100E60000C945210089580917401909175010C9426
:100E700052100895482F64E771E0809172019091BB
:100E8000730192CA0895811106C080918A018F77FB
:100E900080938A01089580918A01806880938A01F5
:100EA000089580918A01881F8827881F089580915E
:100EB0008A0186FB882780F90895811106C08091F8
:100EC0008A018F7E80938A01089580918A018061D2
:100ED00080938A010895811106C080918A018F7DD7
:100EE00080938A01089580918A01806280938A01AB
:100EF000089590918A01987F892B80938A010895A3
:100F000080918A01877008953091870180917F01D7
:100F1000482F50E0832F90E080959095842395236F
:100F2000209186012323822B87FD02C09798089584
:100F3000979A08953091870180917F01482F50E062
:100F4000832F90E0809590958423952320918601AE
:100F50002323822B86FD06C0E5E6F0E080818E7FAC
:100F600080830895E5E6F0E08081816080830895C4
:100F70003091870180917F01482F50E0832F90E0CE
:100F80008095909584239523209186012323822B9D
:100F900085FD06C0E2E6F0E080818E7F80830895C3
:100FA000E2E6F0E0808181608083089530918701DE
:100FB00080917F01482F50E0832F90E0809590959D
:100FC00084239523209186012323822B84FD02C054
:100FD0001A9808951A9A08953091870180917F0197
:100FE000482F50E0832F90E080959095842395239F
:100FF000209186012323822B83FD02C0C39808958C
:10100000C39A08953091870180917F01482F50E065
:10101000832F90E0809590958423952320918601DD
:101020002323822B82FD02C0C2980895C29A08959C
:101030003091870180917F01482F50E0832F90E00D
:101040008095909584239523209186012323822BDC
:1010500081FD02C0DA980895DA9A089530918701E7
:1010600080917F01482F50E0832F90E080959095EC
:1010700084239523209186012323822B80FD02C0A7
:10108000C4980895C49A089581B182FB882780F995
:10109000089586B383FB882780F9089586B382FB81
:1010A000882780F9089589B382FB882780F90895FD
:1010B00086B3829581700895309176018091880180
:1010C000482F50E0832F90E08095909584239523BE
:1010D000209180012323822B87FD02C0AF980895C1
:1010E000AF9A08953091760180918801482F50E0A1
:1010F000832F90E080959095842395232091800103
:101100002323822B86FD06C0E5E6F0E080818B7FFD
:1011100080830895E5E6F0E080818460808308950F
:1011200080918801806C80938801C6DFDBCF0895B1
:10113000809188018F7380938801BEDFD3CF08959B
:101140003091760180918801482F50E0832F90E004
:101150008095909584239523209180012323822BD1
:1011600085FD02C0DF980895DF9A089530917601D9
:1011700080918801482F50E0832F90E080959095D2
:1011800084239523209180012323822B84FD02C098
:10119000DE980895DE9A0895809188018063809397
:1011A0008801CEDFE3CF0895809188018F7C809302
:1011B0008801C6DFDBCF08953091760180918801E8
:1011C000482F50E0832F90E08095909584239523BD
:1011D000209180012323822B83FD02C0A8980895CB
:1011E000A89A08953091760180918801482F50E0A7
:1011F000832F90E080959095842395232091800102
:101200002323822B82FD06C0E5E6F0E080818D7FFE
:1012100080830895E5E6F0E0808182608083089510
:101220003091760180918801482F50E0832F90E023
:101230008095909584239523209180012323822BF0
:1012400081FD06C0E5E6F0E08081877F8083089518
:10125000E5E6F0E080818860808308953091760132
:1012600080918801482F50E0832F90E080959095E1
:1012700084239523209180012323822B80FD02C0AB
:10128000C7980895C79A0895811106C08091880172
:101290008C7F8093880105C0809188018360809352
:1012A0008801BEDFDBCF08958091630082FB882731
:1012B00080F9089589B386FB882780F90895809185
:1012C00063008695817008958091630083FB882771
:1012D00080F908953091810180918F01482F50E06D
:1012E000832F90E080959095842395232091890108
:1012F0002323822B87FD02C094980895949A089521
:101300003091810180918F01482F50E0832F90E030
:101310008095909584239523209189012323822B06
:1013200086FD02C095980895959A0895309181019F
:1013300080918F01482F50E0832F90E08095909509
:1013400084239523209189012323822B85FD02C0CC
:10135000C5980895C59A08953091810180918F01B3
:10136000482F50E0832F90E080959095842395231B
:10137000209189012323822B84FD06C0E2E6F0E060
:101380008081877F80830895E2E6F0E08081886035
:10139000808308953091810180918F01482F50E022
:1013A000832F90E080959095842395232091890147
:1013B0002323822B83FD02C0A9980895A99A08953A
:1013C000CF93C82F877F89F480917F018F7180939D
:1013D0007F019ADDAFDDCCDD80918F018773809333
:1013E0008F01D8DF77DF8CDF43C080918F01806C65
:1013F00080938F016FDF84DF83EC99E00197F1F731
:1014000000C0000080918F01886080938F01C2DF4F
:1014100083EC99E00197F1F700C00000C1FD06C020
:1014200080917F018F7780937F0105C080917F013C
:10143000806880937F0168DDC2FD06C080917F01D6
:101440008F7B80937F0105C080917F0180648093B2
:101450007F0170DDC4FD06C080917F018F7D809388
:101460007F0105C080917F01806280937F0180DDD4
:10147000C3FD06C080917F018F7E80937F0105C0F0
:1014800080917F01806180937F0190DDCF910895ED
:101490003091810180918F01482F50E0832F90E09F
:1014A0008095909584239523209189012323822B75
:1014B00082FD02C0AA980895AA9A089530918101E8
:1014C00080918F01482F50E0832F90E08095909578
:1014D00084239523209189012323822B81FD02C03F
:1014E00096980895969A0895CF93C82F811117C0A2
:1014F00080917F01807F80937F016EDD83DD98DDA9
:10150000ADDD80918F018D7F80938F018091880167
:10151000837F80938801D2DF4FDE64DE51C08091EB
:1015200088018C608093880147DE5CDE83EC99E063
:101530000197F1F700C0000080918F0182608093D5
:101540008F01BCDF83EC99E00197F1F700C0000048
:10155000C1FD06C080917F01877F80937F0105C018
:1015600080917F01886080937F0136DDC2FD06C0D7
:1015700080917F018B7F80937F0105C080917F01E7
:10158000846080937F013EDDC3FD06C080917F01B2
:101590008D7F80937F0105C080917F018260809361
:1015A0007F0146DDC4FD06C080917F018E7F809360
:1015B0007F0105C080917F01816080937F014EDDB6
:1015C000CF9108953091810180918F01482F50E093
:1015D000832F90E080959095842395232091890115
:1015E0002323822B80FD02C0C0980895C09A0895DD
:1015F00080B382958170089580B385FB882780F938
:10160000089586B385FB882780F9089580B183FB10
:10161000882780F9089583B386958170089583B3F0
:1016200082FB882780F9089580B386FB882780F99C
:101630000895DF92EF92FF920F931F93CF93DF9362
:10164000D0B39091630080B1D078E92FE170F0E0E1
:101650000024F695E7950794F695E7950794FE2FF5
:10166000E02DED2B682F617070E0660F771F62959B
:101670007295707F7627607F7627DE2FD62B04DD6C
:10168000C82F07DDD82E0ADDE82E0DDDF82E10DD7F
:1016900090E1C99F900111248D2B282BDD0CDD0CCE
:1016A000DD0C2D294E2D440F440F242B4F2D440FBC
:1016B000422B6DE771E080917B0190917C010E944B
:1016C000D401D3B3F1DDF82E29B3D078221F22271D
:1016D000221F2295220F207ED22BECDDC82FD3B201
:1016E000EEDDE82EF1DD26B30D2D017010E0000FC8
:1016F000111F000F111F000F111F221F2227221F71
:10170000D22BD02B90E4F99E90011124D22B90E1A2
:10171000C99F900111242D2BEE0CEE0C2E29880F61
:10172000482F422B69E771E0809177019091780111
:101730000E94D4015DDF182F5FDF20E8129FB00107
:10174000112420E4829FC0011124162F182B59DF89
:10175000D82F5CDFC82F5FDFF82E61DF082F64DF32
:1017600066B36170262F212B90E2D99FB00111241E
:10177000622B90E1C99F90011124262BFF0CFF0CD6
:10178000FF0C2F29000F000F202B880F482F422B12
:101790006DE871E080918B0190918C010E94D401E1
:1017A00040918A0164E871E0809182019091830107
:1017B0000E94D401DF91CF911F910F91FF90EF9084
:1017C000DF900895A1DBB6DBD3DBF0DB05DC1ADCB0
:1017D0002FDC44DC71DC86DCB3DCC8DCEDDC02DD54
:1017E0001FDD3CDD77DD8CDDA1DDB6DDD3DD50DE38
:1017F00065DEE8CE08951BDB80937F011FDB8093BD
:10180000880123DB80938F0127DB80938A01DACF65
:1018100008951EBC87B78B7F87BF089510929001F3
:10182000009751F09195819591099DBD8CBD87B729
:10183000846087BF85E08EBD85B7837E85BF85B711
:10184000806285BF889585B78F7D85BF0895882381
:1018500041F013BE819582BF87B7816087BF87E063
:1018600083BF85B7837E886085BF85B7806285BF6B
:10187000889585B78F7D85BF08951F920F920FB60B
:101880000F9211248F9313BE87B78E7F87BF8F91DE
:101890000F900FBE0F901F9018951F920F920FB6CA
:1018A0000F9211240BB60F922F933F934F935F9398
:1018B0006F937F938F939F93AF93BF93EF93FF9318
:1018C00081E080939001A5DFFF91EF91BF91AF91EF
:1018D0009F918F917F916F915F914F913F912F9148
:1018E0000F900BBE0F900FBE0F901F901895E1E761
:1018F000F0E080818C7F80838AE280937000E4E74F
:10190000F0E08081846080830895109274000895CF
:10191000E4E7F0E0808184608083089584E9809327
:101920007400E4E7F0E0808184FDFDCF0895E4E7F2
:10193000F0E080818823ECF70895882339F0E4E70C
:10194000F0E080818F70806C80830895E4E7F0E0A0
:1019500080818F70806880830895AF92BF92CF920C
:10196000DF92EF92FF920F931F93CF93DF93C82FD5
:101970006B01142FE22E0F2EF4E7AF2EB12CF02DB9
:1019800084EAF5018083D3DFCC0FC093730084E831
:10199000F5018083CCDF1123F9F0E6011150012F0E
:1019A00010E00F5F1F4F0C0D1D1D0F2EF3E7AF2E24
:1019B000B12CF02D0F2EF4E7CF2ED12CF02D0F2EC1
:1019C000F4E8FF2EF02D8991F5018083F601F08275
:1019D000AEDFC017D107B9F7E110A0DF80E0DF91DB
:1019E000CF911F910F91FF90EF90DF90CF90BF901C
:1019F000AF900895CF92DF92EF92FF920F931F93D3
:101A0000CF93DF93C82F7B01042FD22F0F2EF4E743
:101A1000CF2ED12CF02D84EAF601808388DFCC0F05
:101A2000CF5FC093730084E8F601808380DF10E00D
:101A30000150110910161106B4F4C0E00F2EF3E79F
:101A4000CF2ED12CF02D81E078DF71DFF60180817F
:101A5000F701EC0FF11D8083CF5F8C2F90E0801792
:101A600091078CF301C0C0E080E067DF60DF809108
:101A70007300F701EC0FF11D8083D1114FDF80E07F
:101A8000DF91CF911F910F91FF90EF90DF90CF905A
:101A9000089528E92AB996E0909395001092900055
:101AA00085E089B920939A0090939D001092980048
:101AB00080939900109291011092DB011092DC0149
:101AC0001092DA011092D8011092B3011092920193
:101AD0001092B0011092D9011092B2011092D3016C
:101AE0001092D10108958AB187748AB9089510922D
:101AF00091011092D8011092B301109292011092AC
:101B0000B0018AB188698AB90895EAE9F0E0808174
:101B10008774808308959093D7018093D60121E044
:101B2000209391016093DB0110929201FC0180816E
:101B30008CB9559A08951F920F920FB60F921124E7
:101B40000BB60F928F939F93EF93FF939CB180916D
:101B5000B301811140C08091D801811112C094322B
:101B600069F4E091D801F0E0ED56FE4F84E2808305
:101B70008091D8018F5F8093D8012DC01092D80139
:101B80002AC08091D801813091F4913469F4E091B8
:101B9000D801F0E0ED56FE4F81E480838091D801BA
:101BA0008F5F8093D80117C01092D80114C0E091C4
:101BB000D801F0E0ED56FE4F90838091D8018F5F01
:101BC0008093D8018091D8018F3128F081E08093F3
:101BD000B3011092D801FF91EF919F918F910F90D7
:101BE0000BBE0F900FBE0F901F9018951F920F9273
:101BF0000FB60F9211240BB60F928F939F93EF9312
:101C0000FF9390919C008091B201811140C080911E
:101C1000D901811112C0943269F4E091D901F0E048
:101C2000EC54FE4F84E280838091D9018F5F8093D2
:101C3000D9012DC01092D9012AC08091D9018130DB
:101C400091F4913469F4E091D901F0E0EC54FE4F45
:101C500081E480838091D9018F5F8093D90117C07F
:101C60001092D90114C0E091D901F0E0EC54FE4F7C
:101C700090838091D9018F5F8093D9018091D901A0
:101C80008F3128F081E08093B2011092D901FF9149
:101C9000EF919F918F910F900BBE0F900FBE0F9001
:101CA0001F9018951F920F920FB60F9211240BB62A
:101CB0000F928F939F93EF93FF9390919101809157
:101CC000DB01981780F480919101E091D601F091A9
:101CD000D701E80FF11D80818CB9809191018F5F50
:101CE0008093910108C0109291011092DB0181E074
:101CF000809392015598FF91EF919F918F910F9052
:101D00000BBE0F900FBE0F901F9018951F920F9251
:101D10000FB60F9211240BB60F928F939F93EF93F0
:101D2000FF939091DC018091DA01981788F48091FB
:101D3000DC01E091D401F091D501E80FF11D808123
:101D400080939C008091DC018F5F8093DC010CC04C
:101D50001092DC011092DA0181E08093D301EAE96C
:101D6000F0E080818F7D8083FF91EF919F918F9133
:101D70000F900BBE0F900FBE0F901F9018950CD0B8
:101D8000EBC0E3D040F0DAD030F021F45F3F19F03F
:101D9000CCC0511115C1CFC0F0D098F39923C9F32D
:101DA0005523B1F3951B550BBB27AA276217730761
:101DB000840738F09F5F5F4F220F331F441FAA1F15
:101DC000A9F333D00E2E3AF0E0E830D091505040D5
:101DD000E695001CCAF729D0FE2F27D0660F771F83
:101DE000881FBB1F261737074807AB07B0E809F065
:101DF000BB0B802DBF01FF2793585F4F2AF09E3FFA
:101E0000510568F092C0DCC05F3FECF3983EDCF314
:101E1000869577956795B795F7959F5FC9F7880F72
:101E2000911D9695879597F90895E1E0660F771FC4
:101E3000881FBB1F621773078407BA0720F0621B55
:101E4000730B840BBA0BEE1F88F7E095089504D04E
:101E50006894B111B5C0089598D088F09F5790F05C
:101E6000B92F9927B751A0F0D1F0660F771F881FBF
:101E7000991F1AF0BA95C9F712C0B13081F09FD0FE
:101E8000B1E008959CC0672F782F8827B85F39F09C
:101E9000B93FCCF3869577956795B395D9F73EF41E
:101EA00090958095709561957F4F8F4F9F4F0895C6
:101EB000E89409C097FB3EF49095809570956195E4
:101EC0007F4F8F4F9F4F9923A9F0F92F96E9BB279A
:101ED0009395F695879577956795B795F111F8CF16
:101EE000FAF4BB0F11F460FF1BC06F5F7F4F8F4F81
:101EF0009F4F16C0882311F096E911C0772321F077
:101F00009EE8872F762F05C0662371F096E8862F0E
:101F100070E060E02AF09A95660F771F881FDAF765
:101F2000880F9695879597F9089597F99F6780E8A8
:101F300070E060E008959FEF80EC089500240A941B
:101F40001616170618060906089500240A94121694
:101F50001306140605060895092E0394000C11F4C7
:101F6000882352F0BB0F40F4BF2B11F460FF04C074
:101F70006F5F7F4F8F4F9F4F089557FD9058440FCD
:101F8000551F59F05F3F71F04795880F97FB991FD8
:101F900061F09F3F79F08795089512161306140695
:101FA000551FF2CF4695F1DF08C016161706180622
:101FB000991FF1CF86957105610508940895E894FD
:101FC000BB2766277727CB0197F908950BD0C4CF9D
:101FD000B5DF28F0BADF18F0952309F0A6CFABCF14
:101FE0001124EECFCADFA0F3959FD1F3950F50E0F7
:101FF000551F629FF001729FBB27F00DB11D639FBB
:10200000AA27F00DB11DAA1F649F6627B00DA11D60
:10201000661F829F2227B00DA11D621F739FB00D06
:10202000A11D621F839FA00D611D221F749F332776
:10203000A00D611D231F849F600D211D822F762F0F
:102040006A2F11249F5750408AF0E1F088234AF00C
:10205000EE0FFF1FBB1F661F771F881F9150504058
:10206000A9F79E3F510570F060CFAACF5F3FECF318
:10207000983EDCF3869577956795B795F795E79544
:102080009F5FC1F7FE2B880F911D9695879597F955
:102090000895FB01DC018D91019080190110D9F3A5
:1020A000990B0895E199FECF9FBB8EBBE09A9927CB
:1020B0008DB30895262FE199FECF9FBB8EBBE09A8A
:1020C00001970DB2021631F02DBB0FB6F894E29ACB
:0A20D000E19A0FBE0895F894FFCFC7
:1020DA004800004E00004900004D000028000000A2
:1020EA0000000000000000000000000000280000BE
:1020FA0000000000000000000000000000004F0087
:10210A000000000000000000000000000000004A7B
:10211A0000000000000000000000000000000000B5
:10212A004C00000000000000000000000000000059
:02213A000000A3
:00000001FF
